:020000040800F2
:10000000F82A002049010008194F0008E1450008BE
:10001000154F000879120008F9640008000000007C
:10002000000000000000000000000000FD57000874
:10003000B1150008000000007D520008315D000885
:100040006301000863010008630100086301000800
:1000500063010008630100086301000863010008F0
:1000600063010008630100086301000863010008E0
:1000700063010008630100086301000863010008D0
:1000800063010008630100086301000863010008C0
:10009000630100086301000863010008A516000859
:1000A00063010008630100086301000863010008A0
:1000B000A15D0008B15D000863010008630100084C
:1000C000630100086301000863010008315500085E
:1000D00063010008D9640008E964000863010008AE
:1000E0009916000863010008630100086301000815
:1000F000F15D0008E15D0008D15D000863010008C2
:10010000630100086301000863010008630100083F
:100110009161000863010008C15D000863010008E7
:10012000630100086301000863010008630100081F
:10013000DFF810D000F00EFC00480047996A000874
:10014000AFF30080F82A00200648804706480047A1
:10015000FEE7FEE7FEE7FEE7FEE7FEE7FEE7FEE777
:10016000FEE7FEE79F5D000831010008202A04DB5E
:10017000203A21FA02F00021704721FA02F3D04020
:10018000C2F12002914008431946704740EA01033A
:100190009B0703D009E008C9121F08C0042AFAD23D
:1001A00003E011F8013B00F8013B521EF9D2704701
:1001B000D2B201E000F8012B491EFBD270470022A9
:1001C000F6E710B513460A4604461946FFF7F0FF56
:1001D000204610BDF0B480EA0102D40F4200B2EB19
:1001E000410F02D20246084611464A0042D0C30DD2
:1001F000DDB2C1F3C752AD1A202D35DAC1F31601B5
:1002000041F4000204B15242C5F1200602FA06F19F
:100210002A411044B3EBD05F23D0C4B1012DA0EB31
:10022000C35009DCF0BC4FF0004202EAC352DBB21B
:1002300000F5000000F002BB400000F1807000EB10
:10024000C350A0F1807040EAD170490009E049082C
:1002500041EAC071A0EBC35000F50000400800EB7C
:10026000C350F0BC00F0E1BA6142012202EB41014F
:10027000001BF6E7F0BC704781F00041AAE780F070
:100280000040A7E780EA010210B502F000434000F9
:1002900022D04A001FD0010E01EB1261C0F35600BC
:1002A000C2F3560240F4000042F40002A0FB022018
:1002B00000047F39140400D0401C50EA124001D4DD
:1002C0004000491EC2B20C0604EBD010401C40088E
:1002D000802A02D003E0002010BD20F00100002998
:1002E00000DA0020184310BD30B480EA010202F0A9
:1002F000004530F0004221F0004013D090B1C30D12
:10030000D40DC2F31601C0F31600E41A41F4000143
:1003100040F400027D34914201D3641C00E04900A6
:10032000002C02DA30BC002070474FF4000000239C
:10033000914201D3891A034340084FEA4101F7D1A2
:1003400051B1914202D14FF0004105E002D24FF08D
:10035000010101E06FF0010103EBC450284430BCFF
:1003600000F063BA2DE9FE4F804681EA0300C00F1A
:100370000C46009021F0004123F00045B8EB02004C
:10038000A94105D24046214690461C460B460246EE
:1003900023F00040104347D0270DC7F30A00C3F3F2
:1003A0000A510290401A019040286BDAC3F31300FF
:1003B00040F4801B0098924620B10023D2EB030A40
:1003C00063EB0B0B01985946C0F14002504600F018
:1003D0000BFA06460D4650465946019A00F013FAAC
:1003E00010EB08006141002487EA115284EAE773A8
:1003F0001A4340D0009A62B3019A012A4FEA075289
:1004000015DC001B61EB02014FF0004202EA0752CB
:10041000CDE90042001C41F5801132462B4600F028
:100420004AFA03B0BDE8F08F40462146F9E7001BC9
:1004300061EB0201001C41F5801300185B4120189C
:10044000A2F5001747EB030140EAD570B6196D41DC
:1004500011E06D084FEA360645EAC0754FEA0752CB
:10046000001B61EB0201001C41F5801149084FEAB5
:1004700030000019514132462B4603B0BDE8F04F21
:1004800000F00ABA0098012240000023D0EB0202DB
:1004900063EBE073009821464FEAE074B8EB00008C
:1004A00061EB0401E9E783F000435BE781F0004181
:1004B00058E72DE9FE4F81EA030404F0004421F0DF
:1004C000004100944FF0000B23F0004350EA010478
:1004D0005ED052EA03045BD0C3F30A54C1F30A5559
:1004E0002C44A4F2F3340194A0FB0254C1F3130191
:1004F00041F48011C3F3130343F4801301FB02445E
:1005000000FB034E840A970A44EA815447EA835762
:10051000A4FB076802958D0A05FB07854FEA932C1B
:1005200004FB0C542705029D4FEA065847EA16378C
:10053000B5EB08056EEB070C870E920E47EA8117A4
:1005400042EA8312A7FB0201B6EB0B0164EB000445
:100550002B0D43EA0C335E1844EB1C50DA4651462F
:10056000E7FB0201C5F313044FEA0B3343EA1453CC
:100570004FEA0432019C43EA0603A4F10C040294FE
:10058000009CCDE900B400F096F903B0BDE8F08F0F
:1005900000200146F9E72DE9F04D81EA030404F05B
:1005A000004B21F0004514464FF0000A23F00041B3
:1005B00050EA050220D054EA01021DD0C5F30A57C3
:1005C0000246C5F31303C1F31300C1F30A5640F406
:1005D000801543F48013A7EB0608101BD64608F2DB
:1005E000FD3873EB050002D308F1010801E0921811
:1005F0005B41B8F1000F03DA00200146BDE8F08D41
:1006000000204FF48011064684460EE0171B73EB62
:10061000050705D3121B63EB050306434CEA010CE7
:1006200049084FEA300092185B4150EA0107EDD1CA
:1006300052EA030012D082EA040083EA050108436B
:1006400005D0101BAB4106D20122002306E0002298
:100650004FF0004302E06FF0010253101AEB060066
:100660004CEB085110EB0A0041EB0B01BDE8F04DDB
:1006700000F012B996230022114600F0DFB80EB543
:10068000C10F80EAE0700844CA07002140F23343FA
:100690008DE80E000A460B4600F00DF903B000BDD0
:1006A0000EB540F2334102910021CDE900110A4616
:1006B0000B4600F000F903B000BD00F0004220F04E
:1006C0000040C10DC0F3160040F400007F2901DA9C
:1006D00000207047962903DCC1F19601C84001E073
:1006E00096398840002AF4D04042704770B5C1F373
:1006F0000A5201F000450024C1F3130140F2FF3318
:1007000041F480119A4201DA002070BD40F2334377
:100710009A42A2F2334203DC5242FFF727FD00E087
:1007200090402C43F1D0404270BD00F0004230F0C8
:1007300000400AD0C10D01F56071C0F3160042EA15
:100740000151C2084007114370470020014670471D
:1007500030B5041E71F1000404DB4FF00044404248
:1007600064EB0101141E73F1000405DB1C464FF01D
:100770000043524263EB04038B4208BF824230BD08
:1007800030B5041E71F1000404DB4FF00044404218
:1007900064EB0101141E73F1000405DB1C464FF0ED
:1007A0000043524263EB0403994208BF904230BDBC
:1007B00001F0004330B421F0004150EA010206D0BC
:1007C0000A0DA2F56072C1F31301002A02DC30BCED
:1007D00000207047440F44EAC104C100E01830BC57
:1007E00000EBC25000F021B8202A04DB203A00FAC6
:1007F00002F1002070479140C2F1200320FA03F378
:10080000194390407047202A06DBCB17203A41FA63
:1008100002F043EAE07306E041FA02F3D040C2F18D
:10082000200291400843194670470029A8BF70472D
:10083000401C490008BF20F00100704710B4B0FA16
:1008400080FC00FA0CF050EA010404BF10BC7047B1
:1008500049B1CCF1200421FA04F411FA0CF118BFCB
:10086000012121430843A3EB0C01CB1D4FEA00619A
:100870004FEA102042BF002010BC704700EBC3506D
:1008800010440029A4BF10BC7047401C490008BF99
:1008900020F0010010BC704710B5141E73F1000465
:1008A00008DA401C41F1000192185B411A4301D162
:1008B00020F0010010BD2DE9F04D92469B4611B18C
:1008C000B1FA81F202E0B0FA80F220329046FFF7EE
:1008D0008BFF04460F4640EA0A0041EA0B015346EB
:1008E0005A46084313D0114653EA010019D0C8F103
:1008F00040025046FFF73AFC05460E465046594620
:100900004246FFF771FF084305D0012004E020466E
:100910003946BDE8F08D0020054346EAE0762C43D9
:1009200037430A986305E40AA0EB08000022FD0A99
:1009300044EA47540A3002D500200146E9E70105A0
:1009400010196941DDE9084500196941BDE8F04D1C
:10095000A2E70000064C074D06E0E06840F0010306
:1009600094E8070098471034AC42F6D3FFF7E4FB55
:1009700090700008B070000830B58C1810F8012B8A
:1009800012F00F0301D110F8013B120906D110F843
:10099000012B03E010F8015B01F8015B5B1EF9D14C
:1009A00001E001F8013B521EFBD1A142E6D3002039
:1009B00030BD70B5044600252068806800F0010055
:1009C00018B32068806820F001002168886001F079
:1009D00097FC054613E001F093FC401B02280ED95A
:1009E0002068806800F0010048B1A06A40F0100063
:1009F000A062E06A40F00100E062012070BD206862
:100A0000806800F001000028E5D10020F6E7000032
:100A100038B504460025002000902068806800F06A
:100A2000010078BB2068806840F001002168886080
:100A3000194800681949B0FBF1F0009002E00098F5
:100A4000401E009000980028F9D101F059FC05469D
:100A500019E001F055FC401B022814D92068806879
:100A600000F0010078B9A06A40F01000A062E06ACE
:100A700040F00100E06200BF002084F8240000BFC5
:100A8000012038BD05E02068806800F001000028E2
:100A9000DFD00020F5E700003801002040420F00C1
:100AA00008B501224FF49671684605F0F9FD9DF8EE
:100AB0000000AA2801D1002008BDAA200090012230
:100AC0004FF49671684605F02EFE01224FF49671A0
:100AD000684605F0E5FD9DF80000AA2801D1002038
:100AE000EAE70120E8E7000070B505460C46124829
:100AF0000570062010494870012088703020C870A9
:100B0000200A08714C7106210B4806F031FA0B4897
:100B10000078094988710A480078C871002009499D
:100B200008700122D102084801F0E4FB08220249C2
:100B3000064803F01AFD70BD660000206801002021
:100B4000670100205E0100200014014074040020B1
:100B50002DE9F0410020FE490870FE490880FE4959
:100B60008885C885FD49088040F60901012004F008
:100B70009BFB00B2F84988850846B0F92C0010F1BB
:100B80000A0F03DD0A20F349088002E00020F14942
:100B9000088010E040F60901012004F085FB00B256
:100BA000ED4988854FF4967001F07AF9EB4800889A
:100BB000401CEA490880E848B0F92C0010F10A0FFF
:100BC00003DDE64800881E28E4DBE44800881E2890
:100BD00023DB40F23110E0490883E148817A6E203E
:100BE00005F0C4FADE48C1786C2005F0BFFADC4895
:100BF00001786A2005F0BAFAD9484179682005F0F1
:100C0000B5FA0120D749087005F00CF800BFD548A7
:100C100000780028FBD105F0C9FC0020CE490883EC
:100C2000CF48017B6E2005F0A1FACD4881786C2079
:100C300005F09CFACA4881786A2005F097FAC848FE
:100C40008178682005F092FA0120C7490870642075
:100C500001F026F9C548B0F90000C449B1F9021005
:100C60000844C249B1F904100844C049B1F906105A
:100C70000844BE49B1F908100844BC49B1F90A104A
:100C80000844BA49B1F90C100844B849B1F90E103A
:100C90000844B649B1F910100844B449B1F912102A
:100CA00008440A2190FBF1F0B14908600020AE49E8
:100CB0000870A9498885C885A8490880A648B0F960
:100CC0002C0010F1320F04DA6FF01300A1490880F4
:100CD00003E06FF009009F49088010E040F6090129
:100CE000022004F0E1FA00B29B49C8854FF49670E7
:100CF00001F0D6F899480088401C98490880964829
:100D0000B0F92E0010F10A0F03DD94480088642822
:100D1000E4DB92480088642823DB40F231108E49DE
:100D200008838F48817A6E2005F020FA8C48C178BC
:100D30006C2005F01BFA8A4801786A2005F016FA43
:100D40008748C179682005F011FA012085490870AB
:100D500004F068FF00BF834800780028FBD105F04D
:100D600025FC00207C4908837D48017B6E2005F02E
:100D7000FDF97B48C1786C2005F0F8F97848C17816
:100D80006A2005F0F3F97648C178682005F0EEF99D
:100D90000120754908704FF4FA7001F081F873482A
:100DA000B0F900007149B1F9021008446F49B1F976
:100DB000041008446D49B1F9061008446B49B1F9B3
:100DC000081008446949B1F90A1008446749B1F9A3
:100DD0000C1008446549B1F90E1008446349B1F993
:100DE000101008446149B1F9121008440A2190FB1F
:100DF000F1F06049086000205B4908705C480068B9
:100E00005C4909684840002823DD59480068594971
:100E1000096888420EDD56490968564A1268881AE0
:100E200000EBD071534A128802EB610109B2524AB9
:100E3000118019E04F4909684D4A1268881A00EB81
:100E4000D0714B4A128802EB610109B24A4A118003
:100E50000AE047490968474A1268881800EBD071D0
:100E6000491009B2444A118041490968414A12684F
:100E7000A1EB0208B8F1000F01DB414601E0C8F127
:100E8000000188B2FFF70CFC06463C4A3C4BFFF7DA
:100E900010FB0446FFF72AFC00B22F49A1F84800D6
:100EA0000846008901280DD1364833490988018058
:100EB0000222422105F037FC2F48B0F900003249E8
:100EC00008803EE02C48B0F900002F49B1F900102D
:100ED000401A322801DD012000E000202649B1F946
:100EE0000010294AB2F90020891A11F1320F01DAF3
:100EF000012100E00021084318B34FF4987016490F
:100F000008831748817A6E2005F030F91448C178BB
:100F10006C2005F02BF9124801786A2005F026F9BB
:100F20000F480179682005F021F901200D4908706A
:100F300004F078FE00BF0B4800780028FBD105F0D4
:100F400035FB0020044908830548017B6E201DE025
:100F5000F4000020F600002068050020EA010020CF
:100F600080010020F2010020EC010020C8040020D4
:100F7000380000203C000020F80000200AD7A370B1
:100F80003D0AE73F30060020D800002005F0EEF8CB
:100F9000094801796C2005F0E9F8074801796A20D1
:100FA00005F0E4F804480179682005F0DFF8002036
:100FB00002490880BDE8F08180010020F600002091
:100FC00010B5642000F06CFF0020434908704349CD
:100FD000088001204249087001224103414801F084
:100FE00089F900F04BF9012211023E4801F082F923
:100FF000012204213C4801F07DF94FF4FA7000F021
:101000004FFF0FE040F60601012004F04DF937498B
:10101000086037480088401C354908804FF4FA7052
:1010200000F03EFF31480068B0F5117F03D2304830
:1010300000883228E6DB2E480088322823DB4FF474
:1010400099702C4908832C48817A6E2005F08EF81F
:101050002948C1786C2005F089F8274801786A2072
:1010600005F084F824488179682005F07FF8012094
:101070002249087004F0D6FD00BF204800780028FF
:10108000FBD105F093FA00201A4908831A48017B26
:101090006E2005F06BF8184841786C2005F066F872
:1010A000154841786A2005F061F8134841786820B6
:1010B00005F05CF84FF47A7000F0F2FEFFF748FD9F
:1010C00000200F4908700F4908700120024908707C
:1010D0000D49087010BD0000F4000020F60000204B
:1010E0002101002000100140001801408400002070
:1010F0001A0000206805002080010020F201002075
:10110000300000202D0000203500002070B504467E
:101110005248B0F94C005149B1F94E1088427DD186
:101120004E48B0F94C00052878DA4C48B0F94C002C
:10113000002873DD012C06D0022C1BD0032C1AD002
:10114000042C1AD118E04FF4FA70454908804FF486
:101150002F704449088040F2DC50434908804FF426
:10116000FA504249088039204149086054204149D9
:10117000086003E002E001E000E000BF00BF4FF4C0
:101180009971012004F090F805464FF499710220FE
:1011900004F08AF885420CD140F23311012004F0AA
:1011A00083F8054640F23311022004F07DF88542B1
:1011B00004D04FF40C710A2000F0FCF94FF499713F
:1011C000012004F071F829490988884208D140F2C9
:1011D0003311012004F068F823490988884204D0BB
:1011E0004FF40C710A2000F0E5F96621012004F0AB
:1011F0005BF805466621022004F056F885420AD1C4
:101200006721012004F050F805466721022004F010
:101210004BF8854206D040F2312100E017E00A2069
:1012200000F0C8F96621012004F03EF80C49098855
:10123000884207D16721012004F036F8094909885E
:10124000884209D040F231210A2000F0B3F940F27F
:1012500026210A2000F0AEF970BD000068050020CC
:10126000A0010020A2010020A4010020A60100206E
:10127000A8010020AC01002000BFFEE770B514E01B
:1012800040F60601012004F00FF8044640F606017E
:10129000022004F009F8054676480088401C75498C
:1012A00008804FF47A7000F0FBFD0CB1012000E0E3
:1012B00000200DB1012100E00021084318B16D4864
:1012C00000880A28DCDB6B4800880A2823DB4FF4FF
:1012D0009A70694908836948817A6E2004F046FF54
:1012E0006648C1786C2004F041FF644801786A20A8
:1012F00004F03CFF6148017A682004F037FF0120C8
:101300005F49087004F08EFC00BF5D48007800283B
:10131000FBD105F04BF94FF400715A4800F0E2FFA1
:1013200068BB40F61701012003F0BEFF00B252492E
:101330004883524841786E2004F018FF4F48017CE2
:101340006C2004F013FF4C48B0F918000A2190FB00
:10135000F1F04A490E5C31466A2004F007FF464826
:10136000B0F918000A2190FBF1F201FB1200434989
:101370000E5C3146682004F0F9FE00BFFEE74FF432
:101380008061404800F0AEFF68BB40F617010220C4
:1013900003F08AFF00B238498883384881786E208C
:1013A00004F0E4FE3548017C6C2004F0DFFE324896
:1013B000B0F918000A2190FBF1F030490E5C31467B
:1013C0006A2004F0D3FE2C48B0F918000A2190FBE3
:1013D000F1F201FB120029490E5C3146682004F04D
:1013E000C5FE00BFFEE7012003F000FA012003F074
:1013F000FDF9022003F0FAF9022003F0F7F9224880
:1014000002884FF49871002004F07EFB4FF498712D
:10141000012003F049FF04464FF49871022003F0C5
:1014200043FF0546AC4220D0CB2013490883134824
:10143000817A6E2004F09AFE104881786C2004F0C6
:1014400095FE0E4801786A2004F090FE0B48C178A2
:10145000682004F08BFE01200949087000BF08488D
:1014600000780028FBD105F0A1F8002007490860AA
:1014700070BD0000E8010020680500208001002008
:10148000F201002000140140E00000208400002050
:1014900010B50446354804700320344948700920CB
:1014A00088700520C870002008710120487106214D
:1014B0002E4805F05DFD2E4800782C4988712D4896
:1014C0000078C87100202C4908700122D1022B48F5
:1014D00000F010FF08222549294803F046F807E0EC
:1014E00028480088401C27490880C82000F0D8FC04
:1014F0002148007808B9012000E00020214909882E
:10150000642901DA012100E0002108400028E7D128
:101510001C480088642801DB012000E000201A49F3
:101520000978A14201D0012100E000210843C8B19F
:10153000FF20164908801648817B6E2004F016FEB5
:10154000134801786C2004F011FE1148C17B6A2019
:1015500004F00CFE0E48C17B682004F007FE0B4827
:10156000007810BD08480079FBE700006600002005
:1015700068010020670100205E0100200014014086
:10158000740400205A0100205F0000205C0100204C
:101590008001002010B5012241F22201002004F058
:1015A000B3FA00200149C88610BD0000680500207C
:1015B0007047000005460C4620B2154908831548BF
:1015C000415D6E2004F0D2FD642094FBF0F01149DF
:1015D0000E5C31466C2004F0C9FD642094FBF0F1F0
:1015E00000FB11400A2190FBF1F00A490E5C3146E4
:1015F0006A2004F0BBFD0A2094FBF0F100FB1140CF
:1016000004490E5C3146682004F0B0FD00BFFEE7DF
:1016100068050020800100202DE9F041044642F2D7
:10162000107094FBF0F0C5B242F2107094FBF0F130
:1016300000FB11404FF47A7190FBF1F0C6B20846FE
:1016400094FBF0F100FB1140642190FBF1F0C7B274
:10165000642094FBF0F100FB11400A2190FBF1F0B3
:1016600000F0FF080B48415D6E2004F07FFD094843
:10167000815D6C2004F07AFD0648C15D6A2004F0AB
:1016800075FD044810F80810682004F06FFDBDE8EF
:10169000F08100008001002010B54FF4806000F060
:1016A00073FC10BD10B54FF4007000F06DFC10BD60
:1016B00072B600BFFEE7000038B5024600230020E6
:1016C000009000BF92F82400012801D1022038BD0B
:1016D000012082F8240000BF4868072812D2106851
:1016E000406B0C79641E04EB84051F24AC40A043BE
:1016F0000D796D1E05EB85050C68AC402043146820
:10170000606327E048680D2812D21068006B0C79DE
:10171000E41F04EB84051F24AC40A0430D79ED1FAA
:1017200005EB85050C68AC4020431468206311E08C
:101730001068C06A0C790D3C04EB84051F24AC4092
:10174000A0430D790D3D05EB85050C68AC402043A9
:101750001468E06208680A2812D31068C0680C7820
:101760000A3C04EB44050724AC40A0430D780A3D35
:1017700005EB45058C68AC4020431468E0600FE041
:10178000106800690C7804EB44050724AC40A043C2
:101790000D7805EB45058C68AC402043146820614A
:1017A0000868102802D00868112827D1174C106843
:1017B000A0421ED11068806800F40000F0B91068E3
:1017C000806840F400001468A0600868102815D1F3
:1017D0000F4800680F4CB0FBF4F000EB80004000B5
:1017E000009002E00098401E009000980028F9D177
:1017F00004E0906A40F020009062012300BF0020C6
:1018000082F8240000BF184661E700000024014070
:101810003801002040420F0001460868C06C704744
:101820002DE9F0410446002700250026A84614B9FA
:101830000120BDE8F081A06810B1207D00B100BF9B
:10184000A06A30B90020E06284F82400204600F04D
:1018500097F82046FFF7ADF80746A06A00F01000A1
:10186000002873D1002F7ED1A06A20F4885040F068
:101870000200A0623F4AD4E90001904208D1E06929
:10188000B0F5402F02D14FF4002002E0E06900E003
:10189000E0690143207B41EA40000643A068B0F5BF
:1018A000807F02D0A068012802D14FF4807000E050
:1018B00000200543207D012811D1207B38B9A06983
:1018C000401E4FF4006141EA4030054307E0A06A42
:1018D00040F02000A062E06A40F00100E062206871
:1018E000406820F469402843216848602068806887
:1018F00021490840304321688860A068B0F5807FA6
:1019000002D0A068012802D14FF4807000E00020CE
:10191000B0F5807F03D1208A401E4FEA005820682E
:10192000C06A20F4700040EA08002168C86220689C
:10193000806812490840B04209D10020E062A06AE4
:1019400020F0020040F00100A06211E00BE0A06A6C
:1019500020F0020040F01000A062E06A40F00100B8
:10196000E062012704E0A06A40F01000A0620127B5
:1019700038465EE7003C0140FDF7E1FFFE0E1FFF29
:1019800010B586B0044600200290039004900590A4
:1019900014492068884222D100BF1348806940F46E
:1019A0000070114988610846806900F40070019058
:1019B00000BF00BF00BF0846806940F0100088618A
:1019C0000846806900F01000019000BF00BF1020A1
:1019D00002900320039002A9044800F0E3FA06B045
:1019E00010BD000000240140001002400010014022
:1019F000F8B504460D46002600200090002700F0B0
:101A00007FFC06462068806800F4807050B1A06AB0
:101A100040F02000A06200BF002084F8240000BF36
:101A20000120F8BD2068406800F4807020BB206869
:101A3000C06A00F47000F8B917E0681CA8B125B1BD
:101A400000F05EFC801BA8420FD92068006800F0FF
:101A5000020050B9A06A40F00400A06200BF00205C
:101A600084F8240000BF0320DBE72068006800F052
:101A700002000028E1D053E0022000F073FD384955
:101A80000968B1FBF0F021680969364A114091B943
:101A90002168C9689211114069B921680969324AFF
:101AA000114031B92168C9689211114009B9142156
:101AB00017E0292115E0216809692B4A114021B955
:101AC0002168C9689211114041B121680969274A0A
:101AD000114029B92168C968114009B9542100E0B1
:101AE000FC2100FB01F718E0681C98B125B100F05B
:101AF00007FC801BA8420DD90098B8420AD2A06A00
:101B000040F00400A06200BF002084F8240000BF61
:101B1000032086E70098401C00900098B842E3D369
:101B20006FF0120021680860A06A40F40070A062A3
:101B30002068806800F46020B0F5602F0DD1207B14
:101B400058B9A06A20F48070A062A06A00F48050A6
:101B500018B9A06A40F00100A062002061E700000F
:101B600038010020244992249224491249922400E9
:101B700070B50446002500BF94F82400012801D167
:101B8000022070BD012084F8240000BF2046FEF72B
:101B90003FFF0546002D77D1A06A40F2012188431E
:101BA00040F48070A0623C492068884208D13B48DC
:101BB000006800F4702008B9012002E0002000E075
:101BC000012078B1A06A20F48010A06220684068EB
:101BD00000F4806000B3A06A20F4005040F480500C
:101BE000A06219E0A06A40F48010A0622B49091F8E
:101BF0002068884203D028492068884204D12748B9
:101C0000006800F4806000E0002028B1A06A20F4A1
:101C1000005040F48050A062A06A00F4805020B1CF
:101C2000E06A20F00600E06201E00020E06200BF10
:101C3000002084F8240000BFC01E216808602068CE
:101C4000806800F46020B0F5602F16D1124920683A
:101C5000884208D11148006800F4702008B90120BA
:101C600002E0002000E0012038B12068806840F4E4
:101C7000A000216888600CE006E02068806840F4DD
:101C800080102168886004E000BF002084F82400F0
:101C900000BF284675E700000028014004240140E9
:101CA0000146002291F82100022808D00420886310
:101CB00000BF002081F8200000BF012070470868A5
:101CC000006820F00E000B6818600868006820F0BB
:101CD00001000B68186091F8403001209840CB6BF0
:101CE0005860012081F8210000BF002081F8200009
:101CF00000BF1046E2E7000070B50446002594F8E6
:101D00002100022803D00420A0630125C1E020683F
:101D1000006820F00E00216808602068006820F04C
:101D20000100216808605C492068884252D95A49FC
:101D300078392068884201D1012047E0564964394A
:101D40002068884201D1102040E053495039206872
:101D5000884201D1801539E04F493C3920688842DA
:101D600001D1801432E04C4928392068884202D1E0
:101D70004FF480302AE0484914392068884202D163
:101D80004FF4801022E044492068884201D1400489
:101D90001CE042492068884201D1012016E03F49F9
:101DA00014312068884201D110200FE03B492831CE
:101DB0002068884201D1801508E038493C3120680C
:101DC000884201D1801401E04FF480303349091F6B
:101DD000086051E0304978392068884201D10120FB
:101DE00047E02D4964392068884201D1102040E045
:101DF000294950392068884201D1801539E02649A7
:101E00003C392068884201D1801432E022492839C7
:101E10002068884202D14FF480302AE01E491439EC
:101E20002068884202D14FF4801022E01A492068CD
:101E3000884201D140041CE018492068884201D141
:101E4000012016E0154914312068884201D1102084
:101E50000FE0124928312068884201D1801508E03E
:101E60000E493C312068884201D1801401E04FF4D2
:101E70008030094980394860012084F8210000BF82
:101E8000002084F8200000BF606B10B12046616B19
:101E90008847284670BD00008000024008040240C8
:101EA00070B5044600F02CFA06462546681C10B1B1
:101EB00004480078054400BF00F022FA801BA842C5
:101EC000FAD370BD3401002010B50446B4F5007F8C
:101ED00024D10A20FFF7E4FF4FF40071234800F0FB
:101EE00001FA002841D1224908702249C880012006
:101EF0002149087000224103204800F0FBF900222C
:101F00004FF480711D4800F0F5F9002204211C48AF
:101F100000F0F0F901201B49087026E0B4F5806F4D
:101F200023D10A20FFF7BCFF4FF480610F4800F077
:101F3000D9F9D0B900200E4908700E49C880012097
:101F40000D490870002241030C4800F0D3F900222B
:101F50004FF48071094800F0CDF9002204210848AF
:101F600000F0C8F901200749087010BD00140140B5
:101F7000210100206805002093000020001001408E
:101F800000180140AA00002010B50446044800686B
:101F9000204020B1024804602046FFF795FF10BDA5
:101FA000140401402DE9F847024600239C467BE1DA
:101FB0004FF0010808FA03F4D1F8008008EA0400A1
:101FC000A0427DD1DFF8F4A2D1F80480A8EB0A0981
:101FD000D0453AD014DCB8F1030F50D009DCB8F189
:101FE000000F31D0B8F1010F1CD0B8F1020F49D168
:101FF00020E0B8F1110F18D0B8F1120F42D11EE055
:10200000B9F5881F25D006DCB9F5803F20D0B9F599
:10201000801F37D11AE0B9F5001F18D0B9F5041F99
:1020200030D117E0D1F80CC02DE0D1F80C8008F1C8
:10203000040C28E0D1F80C8008F1080C23E0D1F85A
:102040000C8008F10C0C1EE000BF00BF00BF00BFF9
:1020500000BF00BFD1F80880B8F1000F02D14FF0E7
:10206000040C0BE0D1F80880B8F1010F03D14FF058
:10207000080C146102E04FF0080C546103E04FF0CB
:10208000000C00E000BF00BFFF2801D8904601E02F
:1020900002F104084646FF2802D84FEA830803E00D
:1020A000A3F108084FEA88084746D6F800804FF0A9
:1020B0000F0909FA07F928EA09080CFA07F900E0FC
:1020C0007AE048EA0908C6F80080D1F8048008F0F0
:1020D0008058B8F1805F6FD100BFDFF8E481D8F895
:1020E000188048F00108DFF8D891C9F81880C84670
:1020F000D8F8188008F00108CDF8008000BF00BFB4
:102100004FEAB9384FEA930958F829504FEA8378D3
:102110004FEA18794FF00F0808FA09F825EA080580
:10212000DFF8A081424502D14FF0000824E0DFF83B
:102130009881424502D14FF001081DE0DFF88C8103
:10214000424502D14FF0020816E0DFF88481424593
:1021500002D14FF003080FE0DFF87881424502D149
:102160004FF0040808E0DFF87081424502D14FF0DB
:10217000050801E04FF006084FEA83794FEA197924
:1021800008FA09F848EA0505DFF850814FEA930993
:1021900048F82950D1F8048008F48018B8F5801F59
:1021A0000BD1DFF83C81D8F8008048EA0008DFF85E
:1021B0003091C9F800800AE075E0DFF82481D8F892
:1021C000008028EA0008DFF81891C9F80080D1F8EB
:1021D000048008F40018B8F5001F0ED1DFF8008164
:1021E00008F10408D8F8008048EA0008DFF8F09009
:1021F00009F10409C9F800800DE0DFF8E48008F176
:102200000408D8F8008028EA0008DFF8D49009F123
:102210000409C9F80080D1F8048008F40038B8F542
:10222000003F0ED1DFF8B880A8F10408D8F800808C
:1022300048EA0008DFF8A890A9F10409C9F800806D
:102240000DE0DFF89C80A8F10408D8F8008028EAA7
:102250000008DFF88C90A9F10409C9F80080D1F8D2
:10226000048008F48038B8F5803F0ED1DFF8708024
:10227000A8F10808D8F8008048EA0008DFF8609064
:10228000A9F10809C9F800800DE0DFF85480A8F131
:102290000808D8F8008028EA0008DFF84490A9F17F
:1022A0000809C9F800805B1CD1F8008028FA03F8FF
:1022B000B8F1000F7FF47CAEBDE8F8870000111084
:1022C0000010024000080140000C014000100140D5
:1022D0000014014000180140001C014008000140AA
:1022E00008040140024693680B400BB1012000E056
:1022F000002070470AB1016101E00B0403617047DF
:1023000001480068704700002C01002070B50446A9
:102310000CB9012070BD4CF6CC402168086045F234
:10232000555021680860D4E9001048602168A06811
:102330008860FFF7E5FF05460DE0FFF7E1FF401B72
:1023400041F23C31884206D92068C06800F00300A1
:1023500008B10320DEE72068C06800F00300002811
:10236000EBD14AF6AA20216808600020D2E7014696
:102370004AF6AA200A6810600020704703480068E7
:102380000349097808440149086070472C0100207E
:102390003401002010B50848006840F010000649DC
:1023A0000860032000F0A8F8002000F007F800F013
:1023B0002BF8002010BD00000020024070B504463C
:1023C0000E4800784FF47A71B1FBF0F00C490968BF
:1023D000B1FBF0F5284600F071FE08B1012070BD98
:1023E000102C07D200222146501E00F047F8054865
:1023F000046001E00120F2E70020F0E73401002052
:10240000380100203001002008B500BF1148806964
:1024100040F001000F4988610846806900F0010022
:10242000009000BF00BF00BF0846C06940F0805068
:10243000C8610846C06900F08050009000BF00BF2E
:1024400000BF0549486820F0E06040F00070486037
:1024500000BF08BD001002400000014001460846D0
:10246000002809DB00F01F0301229A4043099B006A
:1024700003F1E023C3F8002100BF70472DE9F05FAE
:1024800080460D461646002704F038F807463946C0
:102490002A46334601F00700C0F1070ABAF1040FDB
:1024A00002D94FF0040A01E0C0F1070AD14600F159
:1024B000040ABAF1070F02D24FF0000A01E0A0F1BE
:1024C000030AD4464FF0010A0AFA09FAAAF1010AEE
:1024D0000AEA020A0AFA0CFA4FF0010B0BFA0CFB9B
:1024E000ABF1010B0BEA030B4AEA0B042146404611
:1024F00004F00CF8BDE8F09F00BF00F00702064BA7
:1025000019684FF6FF031940044B0B4343EA0221BD
:10251000014B196000BF70470CED00E00000FA05A8
:1025200000BF00BF00BF00BF00BFBFF34F8F00BFA1
:1025300000BF00BF0948006800F4E0600849084394
:10254000001D0649086000BF00BF00BFBFF34F8FEA
:1025500000BF00BF00BF00BF00BFFDE70CED00E003
:102560000000FA052DE9F04706464FF00008002567
:1025700000270024A146042E37D004DC012E3CD0D5
:10258000022E6CD160E0082E33D0102E67D1364871
:102590004468006800F0807008B33448C4F3834195
:1025A000475C04F4803078B12F484068C0F3404065
:1025B0002F4911F8008004F4803040B12D48B0FB61
:1025C000F8F000FB07F502E02B4807FB00F5264872
:1025D000406800F48000B0F5800F01D1A94603E007
:1025E00068000321B0FBF1F93AE000F033F98146CD
:1025F00036E000F02FF9814632E01B48046A04F40B
:102600004070B0F5807F05D104F0020010B14FF4A6
:10261000004918E004F44070B0F5007F07D112487B
:10262000406A00F0020010B149F640490BE004F4A2
:102630004070B0F5407F06D10B48006800F40030D0
:1026400008B14FF224490BE000F0F4F8064949685C
:10265000C1F38131491C4900B0FBF1F900E000BF32
:1026600000BF4846BDE8F0870010024066700008D1
:102670007670000800127A0000093D0070B504462B
:102680000D460CB9012070BD5A48006800F00700E3
:10269000A8420ED25748006820F007002843554949
:1026A00008600846006800F00700A84201D0012039
:1026B000E9E7207800F0020002281DD1207800F020
:1026C0000400042805D14C48406840F4E0604A49C1
:1026D0004860207800F00800082805D14648406886
:1026E00040F46050444948604348406820F0F0009E
:1026F000A168084340494860207800F0010078B3A1
:102700006068012806D13C48006800F4003090B9A8
:102710000120B8E76068022806D13748006800F059
:10272000007040B90120AEE73348006800F00200B5
:1027300008B90120A7E73048406820F0030061682D
:1027400008432D494860FFF7DBFD064609E0FFF727
:10275000D7FD801B41F28831884202D9032092E7DD
:1027600007E02548406800F00C006168B0EB810F7D
:10277000EDD12048006800F00700A8420ED91D489E
:10278000006820F0070028431A49086008460068DE
:1027900000F00700A84201D0012074E7207800F083
:1027A0000400042807D11448406820F4E060E16880
:1027B000084311494860207800F00800082808D133
:1027C0000D48406820F46050216940EAC1000A4980
:1027D000486000F03FF808494968C1F30311074A0F
:1027E000515CC8400649086006480068FFF7E6FDEE
:1027F000002048E7002002400010024078700008E6
:1028000038010020300100200148006870470000B6
:102810003801002000B5FFF7F7FF04494968C1F30C
:102820000221034A515CC84000BD00000010024074
:102830008870000800B5FFF7E7FF04494968C1F355
:10284000C221034A515CC84000BD00000010024094
:102850008870000870B500210022002400230020A9
:10286000134D696801F00C05F5B1042D02D0082D57
:1028700019D101E00F4819E00F4DC1F38346AB5D5C
:1028800001F4803555B10A4D6D68C5F340450B4ED6
:10289000725D084D5D43B5FBF2F402E0084D03FBA9
:1028A00005F4204602E000BF024800BF00BF70BD33
:1028B0000010024000127A00547000086470000892
:1028C00000093D00F8B504460CB90120F8BD207898
:1028D00000F00100002878D0F848406800F00C00B3
:1028E00004280CD0F548406800F00C00082811D1ED
:1028F000F248406800F48030B0F5803F0AD1EF48DC
:10290000006800F4003000285FD0606800285CD1C7
:102910000120DBE700BF6068B0F5803F06D1E748E3
:10292000006840F48030E549086028E0606858B9E4
:10293000E248006820F48030E049086008460068FA
:1029400020F4802008601AE06068B0F5A02F0BD159
:10295000DA48006840F48020D849086008460068DA
:1029600040F4803008600AE0D448006820F48030E9
:10297000D24908600846006820F48020086000BF43
:10298000606888B1FFF7BCFC054606E0FFF7B8FCBD
:10299000401B642801D9032098E7C848006800F468
:1029A00000300028F2D010E0FFF7AAFC054606E050
:1029B000FFF7A6FC401B642801D9032086E7BF4827
:1029C000006800F400300028F2D1207800F0020006
:1029D000022857D1B948406800F00C0050B1B74800
:1029E000406800F00C00082818D1B448406800F492
:1029F000803098B9B148006800F0020020B1206929
:102A0000012801D0012061E7AC48006820F0F800FF
:102A1000616940EAC100A949086033E02069E8B172
:102A20000120A7490860FFF76BFC054606E0FFF7A9
:102A300067FC401B022801D9032047E79F48006834
:102A400000F002000028F2D09C48006820F0F80056
:102A5000616940EAC1009949086013E00020984983
:102A60000860FFF74DFC054606E0FFF749FC401BF8
:102A7000022801D9032029E79048006800F00200ED
:102A80000028F2D1207800F0080008282DD1A06994
:102A9000B8B101208B490860FFF732FC054606E01B
:102AA000FFF72EFC401B022801D903200EE78348C4
:102AB000406A00F002000028F2D0012002F0E0FBA2
:102AC00013E000207F490860FFF71AFC054606E086
:102AD000FFF716FC401B022801D90320F6E67748D1
:102AE000406A00F002000028F2D1207800F00400D3
:102AF000042873D100277148C06900F0805070B974
:102B000000BF6E48C06940F080506C49C8610846FB
:102B1000C06900F08050009000BF00BF01276A48E4
:102B2000006800F48070B0B96748006840F48070B5
:102B300065490860FFF7E4FB054606E0FFF7E0FBA8
:102B4000401B642801D90320C0E65F48006800F4F8
:102B500080700028F2D000BFE068012806D15748F5
:102B6000006A40F001005549086227E0E06858B962
:102B70005248006A20F00100504908620846006A85
:102B800020F00400086219E0E06805280BD14B48EA
:102B9000006A40F00400494908620846006A40F0B3
:102BA000010008620AE04548006A20F0010043493C
:102BB00008620846006A20F00400086200BFE0686E
:102BC000A0B1FFF79DFB054609E0FFF799FB401B0D
:102BD00041F28831884202D9032077E622E0374863
:102BE000006A00F002000028EFD012E0FFF788FB37
:102BF000054608E0FFF784FB401B41F2883188421C
:102C000001D9032062E62D48006A00F00200002886
:102C1000F0D1012F05D12948C06920F08050274903
:102C2000C86100BFE069C8B32448406800F00C00E8
:102C3000082860D0E069022848D1002020490866B1
:102C4000FFF75EFB054606E0FFF75AFB401B022834
:102C500001D903203AE61948006800F00070002806
:102C6000F2D1206AB0F5803F07D11448406820F4C3
:102C70000030A168084311494860D4E908010843BD
:102C80000E49496821F4741108430C494860012039
:102C90000B490866FFF734FB054607E03DE0FFF708
:102CA0002FFB401B022801D903200FE603480068D0
:102CB00000F000700028F2D02FE000000010024069
:102CC000000042428004424200700040002014494B
:102CD0000866FFF715FB054606E0FFF711FB401BF2
:102CE000022801D90320F1E50E48006800F00070C9
:102CF0000028F2D111E0E069012800D1E6E5094899
:102D0000466806F48031206A814204D106F47011CD
:102D1000606A814201D00120D8E50020D6E500009C
:102D2000000042420010024070470000F8B504461F
:102D30002068466820688568C5F3801048B905F0AA
:102D4000010030B1C6F3801018B12046216C8847CD
:102D5000F8BDC5F3400030B1C6F3C01018B120462D
:102D6000616C8847F4E7C5F3401018B9C5F38010CB
:102D7000002871D0C6F3401000286DD0C5F3801034
:102D8000F0B194F8510003280ED0606D40F00400BB
:102D9000606500BF002000902068C0680090206837
:102DA0008068009000BF0BE000BF0020009020680A
:102DB000C068009020688068009000BF00BFC7E72F
:102DC000C5F3401088B1606D40F00100606500BF40
:102DD000002000902068806800902068006820F043
:102DE00040002168086000BF00BF606D70B32068BC
:102DF000406820F0E00021684860012084F851001C
:102E000006F0020010B906F0010000B32068406827
:102E100020F0030021684860E06C50B10F48E16C7D
:102E20004863E06CFEF768FF18B1606D40F0400049
:102E30006065A06C50B10948A16C4863A06CFEF7B6
:102E40005BFF18B1606D40F04000606502E0204615
:102E5000FFF76AFF7CE7FFE700BF79E7CD56000880
:102E600010B504460CB9012010BD606A38B960681D
:102E7000B0F5827F00D105E00021E16102E0002190
:102E8000216161610021A16294F8510028B90020FC
:102E900084F85000204600F043F8022084F85100E6
:102EA0002068006820F0400021680860A08800F4D5
:102EB0008270218901F404410843A18901F4006171
:102EC0000843217C01F002010843217D01F001014A
:102ED0000843218B01F400710843217F01F0380180
:102EE00008432021095D01F080010843218D01F490
:102EF00000510843216808600421A06901EA1040DC
:102F0000216848602068C06920F400602168C861B9
:102F100000206065012084F851000020A4E7000033
:102F200010B586B0044600200290039004900590EE
:102F30001A49206888422ED100BF1948806940F4A0
:102F40008050174988610846806900F480500190DC
:102F500000BF00BF00BF0846806940F004008861E0
:102F60000846806900F00400019000BF00BFA02067
:102F70000290022003900320059002A90948FFF760
:102F800011F840200290002003900120049002A933
:102F90000448FFF707F806B010BD000000300140FC
:102FA000001002400008014010B504460448844265
:102FB00004D1012210210348FFF79CF910BD000045
:102FC0002402002000080140F0B5044694F8515056
:102FD0006668012D08D0B6F5827F03D1A06808B9D4
:102FE000042D01D00220F0BD09B102B10BB90120BE
:102FF000F9E700BF94F85000012801D10220F2E760
:10300000012084F8500000BF94F85100042802D039
:10301000052084F85100002060652163A386E386C3
:10302000A263A387E387E06820B1114820641148B8
:10303000606403E010482064104860642068006801
:1030400000F04000402805D02068006840F04000B3
:103050002768386000BF002084F8500000BF206857
:10306000406840F0E000276878600020BBE700007F
:1030700041550008A955000875550008DD550008A0
:1030800010B50446084884420CD10122102107489B
:10309000FFF730F90648007820B10648007840B2C2
:1030A0000549C88510BD0000240200200008014029
:1030B000F40000208A0000206805002070B5044656
:1030C0002546681EB0F1807F01D301200FE0681E05
:1030D0004FF0E02148610F214FF0FF3003F016FA66
:1030E00000204FF0E021886107200861002070BDBA
:1030F0007047704730B502460B4600BF92F83C005F
:10310000012801D1022030BD012082F83C0000BF1F
:10311000022082F83D00106844681068816824F03D
:1031200070041868044310684460144D1068A84285
:1031300013D0134D1068A8420FD01068B0F1804F23
:103140000BD0104D1068A84207D00F4D1068A84250
:1031500003D00E4D1068A84205D121F080015868B7
:10316000014310688160012082F83D0000BF00200B
:1031700082F83C0000BF00BFC5E70000002C014002
:10318000003401400004004000080040000C0040F2
:1031900010B504460CB9012010BD94F83D0028B9C3
:1031A000002084F83C00204600F026F8022084F835
:1031B0003D00211D206802F023FE012084F8460016
:1031C00000BF84F83E0001213F20015540200155F9
:1031D0004120015500BF00BF012084F84200432078
:1031E0000155442001554520015500BF012084F8B8
:1031F0003D000020D0E7000010B586B00446002056
:1032000002900390049005902068B0F1804F0DD19A
:1032100000BF4448C06940F001004249C861084607
:10322000C06900F00100019000BF78E03E492068CD
:10323000884216D100BF3B48C06940F002003949BE
:10324000C8610846C06900F00200019000BF00BFDD
:10325000002204211D20FFF711F91D20FFF7FEF8C1
:103260005DE03249206888420DD100BF2D48C06919
:1032700040F004002B49C8610846C06900F0040012
:10328000019000BF4BE02A492068884216D100BF58
:103290002448C06940F010002249C8610846C0694E
:1032A00000F01000019000BF00BF00220421362072
:1032B000FFF7E4F83620FFF7D1F830E01D49206829
:1032C00088422CD100BF1748806940F4005015494E
:1032D00088610846806900F40050019000BF00BF7B
:1032E00000BF0846806940F0100088610846806988
:1032F00000F01000019000BF00BF402002900020AD
:103300000390049002A90C48FEF74CFE8020029026
:1033100002200390059002A90748FEF743FE06B07D
:1033200010BD0000001002400004004000080040F2
:10333000001000400034014000100140014691F8A7
:103340003D00012801D001207047022081F83D0096
:10335000164B0868984213D0154B086898420FD056
:103360000868B0F1804F0BD0124B0868984207D024
:10337000114B0868984203D0104B086898420CD152
:103380000868806800F00702062A0CD00868006808
:1033900040F001000B68186005E00868006840F024
:1033A00001000B6818600020CEE70000002C0140EF
:1033B000003401400004004000080040000C0040C0
:1033C000014691F83D00012801D0012070470220FC
:1033D00081F83D000868C06840F001000B68D860C3
:1033E000164B0868984213D0154B086898420FD0C6
:1033F0000868B0F1804F0BD0124B0868984207D094
:10340000114B0868984203D0104B086898420CD1C1
:103410000868806800F00702062A0CD00868006877
:1034200040F001000B68186005E00868006840F093
:1034300001000B6818600020C8E70000002C014064
:10344000003401400004004000080040000C00402F
:103450002DE9F04104460D46002700BF94F83C00DA
:10346000012802D10220BDE8F081012084F83C004F
:1034700000BF022084F83D002068866826F07706A9
:1034800026F47F46206886602868502833D00CDCFC
:10349000202850D004DC00284BD0102851D149E01E
:1034A000302849D040284CD139E060282DD07028F0
:1034B00007D0B0F5805F03D0B0F5005F41D10DE0DB
:1034C00041E0D5E902136A68206802F000FD206837
:1034D000866846F077062068866034E0D5E90213F6
:1034E0006A68206802F0F3FC2068806840F480403D
:1034F0002168886027E0EA686968206802F054FD66
:103500005021206802F0EEFC1DE0EA68696820683E
:1035100002F09CFD6021206802F0E4FC13E0EA6800
:103520006968206802F040FD4021206802F0DAFC62
:1035300009E000BF00BF00BF2968206802F0D2FC8C
:1035400001E0012700BF00BF012084F83D0000BF5B
:10355000002084F83C0000BF384684E702460B4652
:103560001068416821F08001194310684160002013
:103570007047000070B504466949206888427DD1D3
:10358000207F01287BD140216648FEF7ABFE05462F
:1035900080216448FEF7A6FE0540002D6ED0002174
:1035A000204600F015FC00B25F4908805F480078B3
:1035B000012809D05D4890F90000401C20B9084658
:1035C0000088404200B208805748B0F900004FF42C
:1035D0007A7148435649098890FBF1F000B2554989
:1035E000088055480078A0B10846B0F9000053495A
:1035F000534A127821F8120051480078092805DA58
:103600004F480078401C4E49087002E000204C49A9
:103610000870484800884B490988401A00B24A4956
:1036200008804A480078D0B149480068B0F57A7FF0
:1036300015D90846B0F90000642801DD012000E03A
:1036400000204149B1F9001011F1640F01DA0121A4
:1036500000E00021084310B100203B4908803A48AF
:10366000B0F900003B4908800846B0F9000001F0BD
:10367000C3FD394908603548007801E04EE02BE091
:1036800028B93648B0F900003549086003E03248EF
:10369000006833490860324800680A2803DD0A20C0
:1036A0002F49086008E02E48006810F10A0F03DA7D
:1036B0006FF009002A4908602948008829490880D4
:1036C000002210212848FEF715FE0123274A25492C
:1036D0002748FFF779FC21E0207F02281ED12548EA
:1036E0000078C0432349087023480068406A1049A5
:1036F0000880002020490968486240210948FEF7F7
:10370000F1FD18B101200949087002E0FF200749C6
:1037100008701A480068401C1849086070BD000015
:103720000034014000100140160100201801002063
:103730000601002014010020EC010020C804002034
:10374000DA000020F8000020FA000020F400002039
:1037500084000020BC00002050000020F600002063
:10376000FC00002088000020000801408A000020A2
:1037700024020020200100200C030020B8000020BB
:103780002DE9F04104460D461646002700BF94F887
:103790003C00012802D10220BDE8F081012084F81C
:1037A0003C0000BF96B9EB68D5E90012206802F032
:1037B0000FFC2068806920F00C0021688861206877
:1037C0008069A96808432168886141E0042E13D10B
:1037D000EB68D5E90012206802F04CFC2068806993
:1037E00020F440602168886120688069A96840EA07
:1037F0000120216888612BE0082E12D1EB68D5E901
:103800000012206802F053FC2068C06920F00C0010
:103810002168C8612068C069A96808432168C86137
:1038200016E00C2E13D1EB68D5E90012206802F0E7
:103830005AFC2068C06920F440602168C861206893
:10384000C069A96840EA01202168C86100E0012739
:1038500000BF002084F83C0000BF38469CE710B54C
:1038600004460CB9012010BD94F83D0028B9002091
:1038700084F83C00204600F025F8022084F83D0042
:10388000211D206802F0BCFA012084F8460000BF28
:1038900084F83E0001213F20015540200155412080
:1038A000015500BF00BF012084F8420043200155AC
:1038B000442001554520015500BF012084F83D00FA
:1038C0000020D0E7704700002DE9F04304460D4684
:1038D000002615B994F83E000BE0042D02D13F20DC
:1038E000005D06E0082D02D14020005D01E041208E
:1038F000005D804615B994F842000BE0042D02D11A
:103900004320005D06E0082D02D14420005D01E067
:103910004520005D8146B8F1010F02D1B9F1010FD8
:1039200002D00120BDE8F0831DB9022084F83E00DA
:103930000EE0042D03D102213F20015508E0082D9F
:1039400003D102214020015502E00221412001550E
:103950001DB9022084F842000EE0042D03D102219B
:103960004320015508E0082D03D1022144200155D0
:1039700002E002214520015535B1042D0BD0082D60
:1039800010D00C2D1CD114E02068C06840F002005B
:103990002168C86016E02068C06840F00400216813
:1039A000C8600FE02068C06840F008002168C86067
:1039B00008E02068C06840F010002168C86001E09D
:1039C000012600BF00BF46BB01222946206802F045
:1039D0006DFA16492068884213D01549206888423C
:1039E0000FD02068B0F1804F0BD012492068884278
:1039F00007D011492068884203D0104920688842C6
:103A00000CD12068806800F00707062F0CD02068D2
:103A1000006840F001002168086005E02068006847
:103A200040F001002168086030467BE7002C01402F
:103A3000003401400004004000080040000C004039
:103A400070B504462068C5682068066906F0020063
:103A5000022819D105F00200022815D1401F216863
:103A60000861012020772068806900F0030018B108
:103A70002046FFF77FFD05E0204600F097F820463E
:103A800000F095F80020207706F00400042819D1F2
:103A900005F00400042815D1C04321680861022004
:103AA00020772068806900F4407018B12046FFF745
:103AB00061FD05E0204600F079F8204600F077F837
:103AC0000020207706F00800082819D105F008002A
:103AD000082815D1C0432168086104202077206898
:103AE000C06900F0030018B12046FFF743FD05E070
:103AF000204600F05BF8204600F059F800202077BF
:103B000006F01000102819D105F01000102815D16A
:103B1000C04321680861082020772068C06900F44C
:103B2000407018B12046FFF725FD05E0204600F063
:103B30003DF8204600F03BF80020207706F0010019
:103B400048B105F0010030B16FF001002168086153
:103B5000204600F02DF806F08000802809D105F0FD
:103B60008000802805D1C043216808612046FFF706
:103B7000BFFA06F04000402809D105F04000402877
:103B800005D1C04321680861204600F070F906F0B5
:103B90002000202809D105F02000202805D1C043AD
:103BA000216808612046FFF7A4FA70BD704770478E
:103BB0002DE9FC478246DAF80000B0F1804F7DD154
:103BC0006D480088B0F5C87F05DA6B480088401C56
:103BD0006949088014E00020674908806748007838
:103BE00020B167480068401C654908606448006867
:103BF000000C00B2634948866148008800B288869C
:103C00006148FEF7B4FB5F48B0F92E005F490968D0
:103C100048435F49086009685E4A1268881AFCF7E1
:103C20002EFD06465C4A5D4BFCF743FC04460D4600
:103C300058480068FCF723FD804622462B46FCF7D7
:103C400091FBCDE90001FCF751FD5249086008469F
:103C50000068FCF714FD21F000410446FCF746FD26
:103C60004C49086001F0CCFD4D4800884D49098859
:103C7000884211D04C4800884C49098888420BDBA7
:103C80004B48008840B901204A490880002008803C
:103C900044480088424908804748008847490988C5
:103CA000884219D04048008840490988884213DB7F
:103CB0003F48008880B93148007800E059E058B1A9
:103CC00001203C4908803D4801880020FCF70CFF9A
:103CD0003A480088384908803648008868B1384832
:103CE0000088282804DA36480088401C34490880B7
:103CF0000020334908802F49088032480088642812
:103D000005DA30480088401C2E49088023E0002056
:103D10002C490880244800882449098888421ADBF5
:103D200024480088B8B92848007848B901202049BB
:103D300008802549087040F6090101F033FB0AE0CC
:103D400001201B49088000201F49087040F6060129
:103D5000012001F027FB1D48007850B1124800886F
:103D600012490988884204DA0F480088401C0E492D
:103D70000880BDE8FC870000BE0000202101002073
:103D8000C000002068050020BC0400208400002042
:103D900008000020BC0100209A9999999999A93F9F
:103DA000B6010020B801002058000020CA00002001
:103DB00012000020CC000020180000205C00002031
:103DC000A8000020CE000020B20000203500002016
:103DD0000246002031B1042907D0082908D00C2957
:103DE0000CD108E01368586B09E01368986B06E083
:103DF0001368D86B03E01368186C00E000BF00BFC5
:103E0000704770B504460D4600BF94F83C00012889
:103E100001D1022070BD012084F83C0000BF0220C7
:103E200084F83D002946204602F065F848B101209B
:103E300084F83D0000BF002084F83C0000BF012052
:103E4000E8E72068C06820F040002168C86020686A
:103E5000C06820F480402168C860012084F83D00DB
:103E600000BF002084F83C0000BF00BFD2E77047CD
:103E7000F8B504460E46174694F8420020282ED185
:103E800006B10FB90120F8BD012020630020606356
:103E90003A463146204602F0CFFA0546EDB9206B8E
:103EA000012819D100BF0020009020680068009010
:103EB00020684068009000BF00BF00BF00BF2168BD
:103EC0000C3151E8001F41F0100021680C3141E82D
:103ED0000002002AF3D100E001252846D3E70220A2
:103EE000D1E7000070B505460E464F4885425ED1C9
:103EF0004E484078032841D105214C4802F0A2FBEE
:103F000004464A484179807901EB0020A04248D11B
:103F1000002047490870012046490870464800784B
:103F200003283ED14548008840F60901884209D15E
:103F30003E4800793D49C97840EA012000B2404935
:103F400088852EE03D48008840F60601884228D149
:103F5000364800793549C97840EA012000B238492D
:103F600048840846B0F92200002801DA002048847D
:103F70003348B0F922003349086012E02B484078FA
:103F800006280ED10621294802F05CFB044627488A
:103F90008179C07901EB0020A04202D1012025499E
:103FA0000870102221492048FFF762FF3BE02648B5
:103FB000854238D12548007825490978884202D0C1
:103FC0002248007850BB21484078032811D10621AF
:103FD0001E4802F037FB04461C488179C07901EB8A
:103FE0000020A0421AD101201A49087000F096FF63
:103FF00014E016484078062810D10621134802F034
:1040000021FB044611488179C07901EB0020A042D0
:1040100004D101200F49087000F0E2FF0B220B4988
:104020000948FFF725FF70BD740400205F000020E1
:10403000120000205E0100205801002056010020DF
:1040400068050020840000202C0400206E00002061
:10405000540100205F0100200249884200D000BFC7
:1040600070470000740400202DE9F84F04462068D2
:1040700005682068C668206847694FF00009CA468D
:1040800005F00F09B9F1000F0AD105F0200038B191
:1040900006F0200020B1204602F0D2F8BDE8F88FEB
:1040A000B9F1000F7BD007F0010018B906F4907049
:1040B000002874D005F0010030B106F4807018B10A
:1040C000606C40F00100606405F0040030B107F05E
:1040D000010018B1606C40F00200606405F002005D
:1040E00030B107F0010018B1606C40F0040060646A
:1040F00005F0080048B106F0200010B907F00100F3
:1041000018B1606C40F008006064606C002845D015
:1041100005F0200028B106F0200010B1204602F082
:104120008FF820684069C0F3801A606C00F00800C6
:1041300010B9BAF1000F2CD0204602F03BF82068ED
:10414000406900F0400000B300BF00BF2168143197
:1041500051E8001F21F040002168143141E80002BD
:10416000002AF3D100BFE06B50B17748E16B4863A0
:10417000E06BFDF7C1FD88B1E06B416B88470DE056
:104180002046FFF769FF09E009E02046FFF764FFDA
:1041900004E02046FFF760FF002060647EE7206BAC
:1041A000012877D105F01000002873D006F0100028
:1041B0000028FAD000BF002000902068006800901E
:1041C00020684068009000BF00BF2068406900F090
:1041D000400000285FD0E06B006840681FFA80F85C
:1041E000B8F1000F55D0A08D404552DDA4F82E80C7
:1041F000E06B8069202843D000BF00BF21680C31EC
:1042000051E8001F21F4807021680C3141E8000260
:10421000002AF3D100BF00BF00BF2168143151E86C
:10422000001F21F001002168143141E80002002A3A
:10423000F3D100BF00BF00BF2168143151E8001F57
:1042400021F040002168143141E80002002AF3D136
:1042500000BF202084F842000020206300BF00BF80
:1042600021680C3151E8001F21F0100021680C3149
:1042700041E80002002AF3D100BFE06BFDF710FD1A
:1042800002206063A08DE28D801A81B22046FFF784
:1042900029FE03E742E0A08DE18D401A1FFA80F865
:1042A000E08DD0B3B8F1000F37D000BF00BF216858
:1042B0000C3151E8001F21F4907021680C3141E865
:1042C0000002002AF3D100BF00BF00BF21681431F3
:1042D00051E8001F21F001002168143141E800027B
:1042E000002AF3D100BF202084F842000020206380
:1042F00000BF00BF21680C3151E8001F21F0100001
:1043000021680C3141E80002002AF3D100BF0220ED
:10431000606341462046FFF7E5FDBFE605F08000FB
:1043200030B106F0800018B1204602F0A5F8B5E6DD
:1043300005F0400030B106F0400018B1204601F011
:104340006FFFABE600BFA9E6A161000810B5044607
:104350000CB9012010BDA06900B100E000BF94F8C5
:10436000410028B9002084F84000204600F02AF8D7
:10437000242084F841002068C06820F4005021689F
:10438000C860204601F0DAFF2068006920F4904000
:10439000216808612068406920F02A00216848618E
:1043A0002068C06840F400502168C8600020606444
:1043B000202084F8410084F842000020606300BFA0
:1043C000C8E7000010B586B00446002002900390B4
:1043D000049005905C492068884237D100BF5B4853
:1043E000C06940F400205949C8610846C06900F41A
:1043F0000020019000BF00BF00BF0846806940F068
:10440000100088610846806900F01000019000BF2C
:1044100000BF08150290022003900320059002A916
:104420004B48FDF7BFFD4FF4006002900020039061
:10443000049002A94648FDF7B5FD0022032134206F
:10444000FEF71CF83420FEF709F87AE041492068AD
:10445000884244D100BF3D48806940F480403B49D8
:1044600088610846806900F48040019000BF00BF69
:1044700000BF0846806940F00100886108468069F5
:1044800000F00100019000BF00BF00BF0846806936
:1044900040F0080088610846806900F0080001903B
:1044A00000BF00BF00BF2C49486840F0E06040F00A
:1044B0000400486000BF40200290022003900320C7
:1044C000059002A92548FDF76DFD8020029000208F
:1044D0000390049002A92148FDF764FD31E02049D2
:1044E000206888422DD100BF1848C06940F40030D0
:1044F0001649C8610846C06900F40030019000BF49
:1045000000BF00BF0846806940F00400886108468B
:10451000806900F00400019000BF00BF04200290F9
:10452000022003900320059002A90E48FDF73AFDF2
:104530000820029000200390049002A90948FDF78A
:1045400031FD06B010BD0000004C004000100240DC
:10455000001001400038014000000140000C014003
:104560000044004000080140704710B5034693F82E
:104570004100202813D101B10AB9012010BD1962F0
:104580009A84DA8400205864212083F84100186856
:10459000C06840F080001C68E0600020EEE7022068
:1045A000ECE7000010B504460948844206D1002219
:1045B0004FF400610748FDF79DFE07E0064884427E
:1045C00004D1002220210548FDF794FE10BD000013
:1045D00074040020001401402C040020000C014051
:1045E00000BFFEE710B501200D4908700D49A1F884
:1045F0004A00FCF7E5FC41F28830FDF751FC01F080
:1046000011FB0020064908700649A1F84A00064936
:10461000087006490870064908700649087010BD00
:10462000E501002068050020F4000020350000208E
:10463000300000202D00002000B585B00020019042
:1046400002900390049000BF1148806940F0400040
:104650000F4988610846806900F04000009000BF63
:1046600000BF4FF40050019001200490029001A976
:104670000848FDF797FC4FF480500190012004900A
:104680001120029001A90348FDF78CFC05B000BD84
:10469000001002400018014070B5044600F03AFFD7
:1046A00000224FF400511748FDF724FE002525E0B5
:1046B000E00928B1012211031248FDF71BFE05E0B5
:1046C00000224FF480510F48FDF714FE6006040EDF
:1046D000042001F0D8FF012251030A48FDF70AFE29
:1046E000042001F0D0FF00224FF400510548FDF7EF
:1046F00001FE042001F0C7FF681CC5B2082DD7DBFE
:1047000070BD00000018014010B500F003FF012249
:1047100011030D48FDF7EEFD012251030A48FDF794
:10472000E9FD042001F0AFFF00224FF4805106485C
:10473000FDF7E0FD042001F0A6FF00224FF4005138
:104740000148FDF7D7FD10BD0018014010B500F07D
:10475000E1FE00224FF400510C48FDF7CBFD002292
:104760004FF480510948FDF7C5FD042001F08BFF8F
:10477000012251030548FDF7BDFD01221103034845
:10478000FDF7B8FD042001F07EFF10BD00180140C8
:1047900010B5002400F0AEFE012211031248FDF70F
:1047A000A9FD032001F06FFF012251030E48FDF720
:1047B000A1FD032001F067FF07E0601CC4B2FA2CE2
:1047C00003DDFFF7C3FF012010BD4FF48051064801
:1047D000FDF788FD0028F0D100224FF40051024877
:1047E000FDF788FD0020EFE700180140F8B504460A
:1047F000012241F22B01204601F086F9002600201B
:10480000584908700AE02046FCF742FE55490870F6
:104810004FF4C870FDF744FB701C86B25148007815
:10482000012801D0322EEEDB322E04DBCD204E49A2
:10483000088300BFFEE740F60811204600F034FD73
:1048400000B24A4908800846B0F90000002819DA89
:1048500004F59670444908834548817A6E2001F03A
:1048600085FC4348C1786C2001F080FC4048017809
:104870006A2001F07BFC3E48015D682001F076FC77
:1048800000BFFEE740F60211204600F00DFD00904B
:10489000BDF80000B0F5006F1ADD04F5C8703249AC
:1048A00008833348817A6E2001F060FC304801793A
:1048B0006C2001F05BFC2E4801786A2001F056FC68
:1048C000601D2B4A115C682001F050FC00BFFEE720
:1048D00025480089012814D1BDF8000001B2201D2F
:1048E000214A22F810102348BDF800100180601EF4
:1048F0000A2202EB400081B202221E4801F013FF9F
:104900002EE0201D184931F91000BDF800100D1AD5
:10491000B5F5C87F02DC15F5C87F21DA04F1C800BF
:10492000114908831248817A6E2001F01FFC10485B
:1049300081786C2001F01AFC0D4801786A2001F0A2
:1049400015FC0B48015D682001F010FC01200A49AC
:10495000087000BF084800780028FBD101F026FE4F
:10496000F8BD0000F301002068050020EE010020E2
:104970008001002030060020F20100202DE9F14FD7
:1049800082B00298FBF7D1FE80464FF06632104BA2
:10499000FBF78CFD04460D460E490298FBF772FCAE
:1049A0008046FBF7C2FE064622462B46FBF7F3FD88
:1049B0008246FBF7FDFE009007490098FBF70AFCD2
:1049C00004460649FBF790FC01900198BDE8FE8F74
:1049D00066660A400000FA44007C12470080C54425
:1049E0000EB5002000900190029012481249086014
:1049F000002111488160017301754FF46021C1618C
:104A000000200D49486001210B480161FCF708FFB7
:104A100008B1FCF74DFE0E2000900120019000200F
:104A2000029069460448FCF747FE08B1FCF740FED7
:104A30000EBD000000240140F401002000B585B047
:104A40000020019002900390049000BF58488069B4
:104A500040F04000564988610846806900F04000F7
:104A6000009000BF00BF00BF0846806940F0100002
:104A700088610846806900F01000009000BF00BF08
:104A800000BF0846806940F00400886108468069DC
:104A900000F00400009000BF00BF00BF084680691E
:104AA00040F0200088610846806900F020000090F6
:104AB00000BF00BF00BF0846806940F00800886161
:104AC0000846806900F00800009000BF00BF002287
:104AD00010213848FDF70EFC1020019001200290B3
:104AE000002003900220049001A93248FDF75AFAF1
:104AF000002204213048FDF7FDFB002242F208119C
:104B00002E48FDF7F7FB00224FF400612C48FDF71B
:104B1000F1FB002220212B48FDF7ECFB0420019043
:104B200001200290002003900220049001A9224855
:104B3000FDF738FA42F2081001900120029000209F
:104B400003900220049001A91C48FDF72BFA0320D2
:104B50000190002002900120039001A91748FDF761
:104B600021FA4FF4C0600190174802900120039091
:104B700001A91348FDF716FA4FF4006001900120D7
:104B80000290002003900220049001A90C48FDF738
:104B900009FA2020019001200290002003900220B9
:104BA000049001A90748FDF7FDF905B000BD00001C
:104BB00000100240000801400018014000100140B0
:104BC00000140140000C01400000211010B50748FE
:104BD000074908600520486042F21071044881606E
:104BE000FDF794FB08B1FCF763FD10BD00300040F9
:104BF000BC04002010B5002202212C20FDF73EFC51
:104C00002C20FDF72BFC002202212D20FDF736FC85
:104C10002D20FDF723FC002201212E20FDF72EFC84
:104C20002E20FDF71BFC002203211C20FDF726FC93
:104C30001C20FDF713FC012202212520FDF71EFC9C
:104C40002520FDF70BFC022211462620FDF716FC5D
:104C50002620FDF703FC012202211720FDF70EFCA0
:104C60001720FDF7FBFB002202212820FDF706FCA0
:104C70002820FDF7F3FB012202212320FDF7FEFB94
:104C80002320FDF7EBFB10BD10B50F480F4908605E
:104C90004FF48270486000210C488160C16002219D
:104CA000016101214161490281612021C16100212D
:104CB0000162416281620A21C162FEF7D1F808B146
:104CC000FCF7F6FC10BD000000300140240200207B
:104CD00000B58BB000200790089009900A9014212D
:104CE00002A8FBF76CFA0020009001904FF0804082
:104CF000194908604720486000211748816040F644
:104D0000C411C160002101618161FEF741FA08B15F
:104D1000FCF7CEFC4FF48050079007A90E48FEF731
:104D200097FB08B1FCF7C4FC04200290002003901C
:104D300002A90948FFF765F808B1FCF7B9FC0020A3
:104D40000090019069460448FEF7D4F908B1FCF7D9
:104D5000AFFC0BB000BD00007C02002000B58BB0A2
:104D600000200790089009900A90142102A8FBF7F0
:104D700026FA0020009001900A480B4908600320A1
:104D800048600021084881604FF6FF71C160002132
:104D900001618161FEF7FCF908B1FCF789FC0BB0F9
:104DA00000BD0000000800400C03002000B58FB0DB
:104DB00000200B900C900D900E90142106A8FBF78C
:104DC000FEF900200490059000900190029003905D
:104DD0003148324908600320486000212F48816033
:104DE0004FF6FF71C1600021016141618161FEF7F1
:104DF000CFF908B1FCF75CFC4FF480500B900BA985
:104E00002648FEF725FB08B1FCF752FC2348FEF7C5
:104E100026FD08B1FCF74CFC0420069040200790CA
:104E200010200A9006A91D48FEF7EBFF08B1FCF719
:104E30003FFC00200490059004A91848FEF75AF999
:104E400008B1FCF735FC80211448FEF787FB0220EF
:104E50000090032001900020029010200390002277
:104E600069460E48FEF78CFC08B1FCF721FC0120D6
:104E70000190002002901020039004226946074808
:104E8000FEF77EFC08B1FCF713FC6FF0010003494C
:104E9000096808610FB000BD003401409C03002088
:104EA00010B50B480B4908604FF4164048600021CC
:104EB00008488160C16001610C214161002181616C
:104EC000C161FFF743FA08B1FCF7F2FB10BD000027
:104ED000003801402C04002010B50C480C49086033
:104EE0004FF4E13048600021094881604FF40051DF
:104EF000C160002101610C21416100218161C1611A
:104F0000FFF724FA08B1FCF7D3FB10BD00440040C2
:104F10007404002000BFFEE700BFFEE710B528487C
:104F200000782849087003204870274840794006D7
:104F3000000E887000241EE02348C178807801EBC1
:104F400000202044214931F81000C0F3072003213C
:104F500001EB44011B4A50541B48C178807801EB97
:104F600000202044194911F81000042101EB4401EC
:104F70005054601CC4B214484079A042DCDC114893
:104F80008078C01CC1B20F4801F0F2FF10480178D0
:104F90000C488078C01C0B4A11540E48017810460A
:104FA0008078001D1154012220210B48FDF7A2F941
:104FB00004488078421D03490848FFF7D6FA10BD1F
:104FC00054010020760000206E00002068050020BB
:104FD0006801002067010020000C01402C04002023
:104FE00010B57B48C0781E2830D17A48B0F940000F
:104FF00079490988884228D1754840797549B1F9BD
:105000003C10884221D07249487900F026FA704855
:105010004179007901EB002000B26D49C9786D4AF1
:1050200022F811006A48C078114601EB40016B4834
:10503000098801806648C07841000222674801F073
:1050400072FB00206349A1F8400081E06048C0780D
:1050500004280FD15F48B0F940005F4909888842B1
:1050600076D15B484179007901EB002000B25949C3
:1050700008816DE05648C07816280FD15548B0F920
:10508000400055490988884262D1514841790079E8
:1050900001EB002000B24F49888559E04C48C078A8
:1050A0001F2811D14B48B0F940004B49098888426C
:1050B0004ED14FF4FA70FCF7F3FE00F0B7F9002080
:1050C0004449A1F8400043E04148C0781B281ED164
:1050D000002040490883424801786E2001F046F8DC
:1050E0003F4801786C2001F041F83D4801786A2082
:1050F00001F03CF83A480178682001F037F8FCF7F5
:1051000049FA00203749087001F050FA20E0304891
:10511000C078032811D133480078C8B932480078E4
:10512000B0B92B484179007901EB002000B2284941
:10513000C978284A22F811000AE025484179007907
:1051400001EB002000B22249C978224A22F811005E
:105150001F48C078032805D11D48407910B90120A7
:1051600022490870012220212148FDF7C3F80822B6
:1051700017492048FFF7F9F91548C078B8B1144825
:10518000C078012813D01248C07807280FD01048E3
:10519000C07808280BD00E48C078092807D00C48E2
:1051A000C0780A2803D00A48C0780B280ED10848D6
:1051B000C078084901EB400108480988018004488B
:1051C000C07841000222054801F0ADFA10BD000090
:1051D0006E000020680500209C01002030060020A1
:1051E00080010020F2010020AA0000209801002088
:1051F000000C01402C04002030B5014600230A4673
:105200001A4C24681444194D2C602C462468184DFF
:105210002D68AC4203DD164C2468144D2C60134CF1
:105220002468134D2D686D42AC4204DA104C24689A
:1052300064420E4D2C600F4C248854430B4D2D6856
:1052400003FB05404FF4C87490FBF4F00A4C24684B
:10525000A04201DD084C2068074C24686442A0424B
:1052600002DA054C2468604230BD00003C01002099
:105270004001002048010020440100207047000048
:1052800008B508490968C9084FF47A72B1FBF2F110
:105290004143009100BF00BF00994A1E00920029BF
:1052A000F9D108BD3801002070B504460D463448D8
:1052B0000470032032494870280A8870CD7000209D
:1052C00008710120487106212D4801F051FE2D483A
:1052D00000782B4988712C480078C87100202B4930
:1052E00008700122D1022A48FDF704F80822244957
:1052F0002848FFF73AF900202749088007E02648A8
:105300000088401C244908800220FCF7C9FD1F4882
:10531000007808B9012000E000201F4909886429AD
:1053200001DA012100E0002108400028E7D11A48F5
:105330000088642801DB012000E00020174909787B
:10534000A14201D0012100E000210843134949781E
:10535000032901D0012100E00021084318B1FF20FA
:105360000F4908800AE00D480179C07801EB002060
:1053700086B2002005490870304670BD00BFFCE7CA
:105380006600002068010020670100205E01002007
:1053900000140140740400205A0100205F00002026
:1053A0005C01002070B505460C46184805700320C6
:1053B00016494870200A8870CC70002008710120BE
:1053C00048710621114801F0D3FD114800780F49BA
:1053D000887110480078C87100200F4908700122B8
:1053E000D1020E48FCF786FF0848C0780749897843
:1053F00040EA01200A49088003200A49087008226F
:1054000002490948FFF7B1F870BD000066000020AE
:1054100068010020670100205E01002000140140A7
:1054200056010020580100207404002010B54FF4EC
:10543000FB6240F60D11002000F066FB4FF4FA709D
:10544000FCF72EFD012241F25601002000F05CFB2A
:105450004FF4FA70FCF724FD10BD10B504461CBBD8
:105460004FF4FB6240F60D11002000F04DFB64206C
:10547000FCF716FD02224FF45771002000F044FBA8
:105480006420FCF70DFD022240F25D31002000F0A7
:105490003BFB6420FCF704FD4FF4806240F24F3187
:1054A000002000F031FB23E0012C21D14FF4FB62FE
:1054B00040F60D11002000F027FB6420FCF7F0FC03
:1054C00001224FF45771002000F01EFB6420FCF70E
:1054D000E7FC012240F25D31002000F015FB642062
:1054E000FCF7DEFC220340F24F31002000F00CFB01
:1054F00010BD00001FB54FF48050009001200390B4
:105500000020019069460248FCF74CFD1FBD0000D9
:10551000001801401FB54FF4805000900120039007
:10552000019069460148FCF73DFD1FBD0018014090
:1055300010B50248FDF7FAFB10BD00002402002060
:1055400010B504462068C068A16B0880A06B801C61
:10555000A063E08F401EE087E08F50B9206840686C
:1055600020F0400021684860E08E10B9204600F02D
:105570004FF810BD10B504462068007BA16B087081
:10558000A06B401CA063E08F401EE087E08F50B905
:105590002068406820F0600021684860E08E10B903
:1055A000204600F035F810BD10B50446206B008889
:1055B0002168C860206B801C2063E08E401EE0865E
:1055C000E08E50B92068406820F080002168486073
:1055D000E08F10B9204600F01BF810BD10B504464E
:1055E000206B007821680873206B401C2063E08EDC
:1055F000401EE086E08E50B92068406820F08000B0
:1056000021684860E08F10B9204600F001F810BD15
:105610007CB504462C4800681821B0FBF1F04FF42B
:105620007A71B0FBF1F0642148430190FCF768FE09
:1056300005462068406820F020002168486000BFCF
:10564000019820B9606D40F02000606508E0019885
:10565000401E01902068806800F002000028EFD012
:1056600000BF2A466421204600F03AF818B1606D68
:1056700040F020006065A06850B900BF0020009095
:105680002068C068009020688068009000BF00BF5C
:10569000606D88B994F85100042806D1012084F87F
:1056A00051002046FDF780FC0CE0012084F85100F9
:1056B0002046FDF7E5FC05E0012084F85100204676
:1056C000FDF732FB7CBD00003801002070B50546B7
:1056D0006C6A0020E087E0862046FDF725FB70BD60
:1056E000F8B504460E4615463346012202212046EF
:1056F000009500F017F828B1606D40F0200060655B
:105700000320F8BD3346002280212046009500F09A
:1057100009F828B1606D40F0200060650320F0E7D3
:105720000020EEE72DE9F84F04460D4690461E4650
:10573000DDF82890FCF7E4FDA0EB0900371AFCF730
:10574000DFFD82462C480068C0F3CB3078430090E0
:1057500045E0701C002842D0FCF7D2FDA0EB0A0007
:10576000B84200D2A7BB2068406820F0E000216862
:1057700048606068B0F5827F0DD1A068B0F5004F39
:1057800003D0A068B0F5806F05D12068006820F0D4
:10579000400021680860A06AB0F5005F0DD100BF2D
:1057A0002068006820F400502168086020680068C4
:1057B00040F400502168086000BF012084F85100C7
:1057C00000BF002084F8500000BF0320BDE8F88F20
:1057D000FFE7009800B900270098401E009020685D
:1057E00080682840A84201D1012000E00020404507
:1057F000AFD10020EAE70000380100207047000028
:1058000070B57648007870B17548006841F27A71D9
:10581000884208D20020734908700120724908703C
:1058200000206E4908706E48006842F6AE618842FA
:1058300014D96E480088B0F57A7F05DA6B48008885
:10584000401C6A49088009E00020684908806649D0
:105850000870012061490870654908705F48007848
:10586000E8B16449B1F92E00FAF709FF21F00041CF
:1058700004460022604BFAF783FF07D241F2A8608A
:105880005E490880012057490870A5E05548007816
:105890000028FAD157488088584908809CE055492B
:1058A000B1F92E00FAF7EBFE21F000410446002288
:1058B000534BFAF765FF1BD34E49B1F92C00FAF7A9
:1058C000DEFE21F00041044600224E4BFAF758FF5D
:1058D0000ED34D48B0F900004C490988884207DCD6
:1058E0004948B0F90000494909884942884236DAF6
:1058F0004748008847490988884230DB4648008885
:10590000B0F5487F05DA44480088401C42490880C9
:1059100062E000204049088040F2F51035490883D4
:105920000020C8803D48817A6E2000F01FFC3B4873
:1059300041796C2000F01AFC384801786A2000F0A8
:1059400015FC36484178682000F010FC01203449ED
:10595000087000BF324800780028FBD13CE02448A2
:105960000078A0B32048007888B31D48006841F251
:105970007A7188421FD21F49B1F92E00FAF77FFED3
:1059800021F0004104460022264BFAF7E1FE12D234
:1059900025480088B0F5C87F05DA23480088401CF8
:1059A0002149088018E000201F490880114880889C
:1059B0001249088010E00F48B0F9040041F27071FC
:1059C000884209DA0B4880880C49088004E0FFE728
:1059D000084880880949088070BD00000400002044
:1059E00084000020C5010020C4010020C800002060
:1059F000B20100206805002000804D405C000020BE
:105A00000080594000C05740BC00002040000020EA
:105A100058000020CA000020B001002080010020B2
:105A2000F201002000005540C201002010B540F6F0
:105A300017010120FFF738FC00B2314948830846BE
:105A4000408B40B30846408B08832E4841786E2037
:105A500000F08CFB2B48017C6C2000F087FB284871
:105A6000B0F91A000A2190FBF1F026490C5C21469E
:105A70006A2000F07BFB2248B0F91A000A2190FB53
:105A8000F1F201FB12001F490C5C2146682000F076
:105A90006DFB00BFFEE740F617010220FFF704FC94
:105AA00000B2174988830846808B40B30846808B34
:105AB0000883144881786E2000F058FB1148017C5F
:105AC0006C2000F053FB0E48B0F91C000A2190FB3B
:105AD000F1F00C490C5C21466A2000F047FB0848B5
